{
  "_format": "hh-sol-artifact-1",
  "contractName": "NFT",
  "sourceName": "contracts/NFT.sol",
  "abi": [
    {
      "inputs": [],
      "stateMutability": "nonpayable",
      "type": "constructor"
    },
    {
      "anonymous": false,
      "inputs": [
        {
          "indexed": true,
          "internalType": "address",
          "name": "owner",
          "type": "address"
        },
        {
          "indexed": true,
          "internalType": "address",
          "name": "approved",
          "type": "address"
        },
        {
          "indexed": true,
          "internalType": "uint256",
          "name": "tokenId",
          "type": "uint256"
        }
      ],
      "name": "Approval",
      "type": "event"
    },
    {
      "anonymous": false,
      "inputs": [
        {
          "indexed": true,
          "internalType": "address",
          "name": "owner",
          "type": "address"
        },
        {
          "indexed": true,
          "internalType": "address",
          "name": "operator",
          "type": "address"
        },
        {
          "indexed": false,
          "internalType": "bool",
          "name": "approved",
          "type": "bool"
        }
      ],
      "name": "ApprovalForAll",
      "type": "event"
    },
    {
      "anonymous": false,
      "inputs": [
        {
          "indexed": true,
          "internalType": "address",
          "name": "previousOwner",
          "type": "address"
        },
        {
          "indexed": true,
          "internalType": "address",
          "name": "newOwner",
          "type": "address"
        }
      ],
      "name": "OwnershipTransferred",
      "type": "event"
    },
    {
      "anonymous": false,
      "inputs": [
        {
          "indexed": true,
          "internalType": "address",
          "name": "from",
          "type": "address"
        },
        {
          "indexed": true,
          "internalType": "address",
          "name": "to",
          "type": "address"
        },
        {
          "indexed": true,
          "internalType": "uint256",
          "name": "tokenId",
          "type": "uint256"
        }
      ],
      "name": "Transfer",
      "type": "event"
    },
    {
      "inputs": [],
      "name": "MINT_PRICE",
      "outputs": [
        {
          "internalType": "uint256",
          "name": "",
          "type": "uint256"
        }
      ],
      "stateMutability": "view",
      "type": "function"
    },
    {
      "inputs": [],
      "name": "TOTAL_SUPPLY",
      "outputs": [
        {
          "internalType": "uint256",
          "name": "",
          "type": "uint256"
        }
      ],
      "stateMutability": "view",
      "type": "function"
    },
    {
      "inputs": [
        {
          "internalType": "address",
          "name": "to",
          "type": "address"
        },
        {
          "internalType": "uint256",
          "name": "tokenId",
          "type": "uint256"
        }
      ],
      "name": "approve",
      "outputs": [],
      "stateMutability": "nonpayable",
      "type": "function"
    },
    {
      "inputs": [
        {
          "internalType": "address",
          "name": "owner",
          "type": "address"
        }
      ],
      "name": "balanceOf",
      "outputs": [
        {
          "internalType": "uint256",
          "name": "",
          "type": "uint256"
        }
      ],
      "stateMutability": "view",
      "type": "function"
    },
    {
      "inputs": [],
      "name": "baseTokenURI",
      "outputs": [
        {
          "internalType": "string",
          "name": "",
          "type": "string"
        }
      ],
      "stateMutability": "view",
      "type": "function"
    },
    {
      "inputs": [
        {
          "internalType": "uint256",
          "name": "tokenId",
          "type": "uint256"
        }
      ],
      "name": "getApproved",
      "outputs": [
        {
          "internalType": "address",
          "name": "",
          "type": "address"
        }
      ],
      "stateMutability": "view",
      "type": "function"
    },
    {
      "inputs": [],
      "name": "getTokenCounts",
      "outputs": [
        {
          "internalType": "uint256",
          "name": "",
          "type": "uint256"
        }
      ],
      "stateMutability": "view",
      "type": "function"
    },
    {
      "inputs": [
        {
          "internalType": "address",
          "name": "owner",
          "type": "address"
        },
        {
          "internalType": "address",
          "name": "operator",
          "type": "address"
        }
      ],
      "name": "isApprovedForAll",
      "outputs": [
        {
          "internalType": "bool",
          "name": "",
          "type": "bool"
        }
      ],
      "stateMutability": "view",
      "type": "function"
    },
    {
      "inputs": [
        {
          "internalType": "address",
          "name": "recipient",
          "type": "address"
        }
      ],
      "name": "mintTo",
      "outputs": [
        {
          "internalType": "uint256",
          "name": "",
          "type": "uint256"
        }
      ],
      "stateMutability": "payable",
      "type": "function"
    },
    {
      "inputs": [],
      "name": "name",
      "outputs": [
        {
          "internalType": "string",
          "name": "",
          "type": "string"
        }
      ],
      "stateMutability": "view",
      "type": "function"
    },
    {
      "inputs": [],
      "name": "owner",
      "outputs": [
        {
          "internalType": "address",
          "name": "",
          "type": "address"
        }
      ],
      "stateMutability": "view",
      "type": "function"
    },
    {
      "inputs": [
        {
          "internalType": "uint256",
          "name": "tokenId",
          "type": "uint256"
        }
      ],
      "name": "ownerOf",
      "outputs": [
        {
          "internalType": "address",
          "name": "",
          "type": "address"
        }
      ],
      "stateMutability": "view",
      "type": "function"
    },
    {
      "inputs": [
        {
          "internalType": "address",
          "name": "dest",
          "type": "address"
        }
      ],
      "name": "payments",
      "outputs": [
        {
          "internalType": "uint256",
          "name": "",
          "type": "uint256"
        }
      ],
      "stateMutability": "view",
      "type": "function"
    },
    {
      "inputs": [],
      "name": "renounceOwnership",
      "outputs": [],
      "stateMutability": "nonpayable",
      "type": "function"
    },
    {
      "inputs": [
        {
          "internalType": "address",
          "name": "from",
          "type": "address"
        },
        {
          "internalType": "address",
          "name": "to",
          "type": "address"
        },
        {
          "internalType": "uint256",
          "name": "tokenId",
          "type": "uint256"
        }
      ],
      "name": "safeTransferFrom",
      "outputs": [],
      "stateMutability": "nonpayable",
      "type": "function"
    },
    {
      "inputs": [
        {
          "internalType": "address",
          "name": "from",
          "type": "address"
        },
        {
          "internalType": "address",
          "name": "to",
          "type": "address"
        },
        {
          "internalType": "uint256",
          "name": "tokenId",
          "type": "uint256"
        },
        {
          "internalType": "bytes",
          "name": "data",
          "type": "bytes"
        }
      ],
      "name": "safeTransferFrom",
      "outputs": [],
      "stateMutability": "nonpayable",
      "type": "function"
    },
    {
      "inputs": [
        {
          "internalType": "address",
          "name": "operator",
          "type": "address"
        },
        {
          "internalType": "bool",
          "name": "approved",
          "type": "bool"
        }
      ],
      "name": "setApprovalForAll",
      "outputs": [],
      "stateMutability": "nonpayable",
      "type": "function"
    },
    {
      "inputs": [
        {
          "internalType": "string",
          "name": "_baseTokenURI",
          "type": "string"
        }
      ],
      "name": "setBaseTokenURI",
      "outputs": [],
      "stateMutability": "nonpayable",
      "type": "function"
    },
    {
      "inputs": [
        {
          "internalType": "bytes4",
          "name": "interfaceId",
          "type": "bytes4"
        }
      ],
      "name": "supportsInterface",
      "outputs": [
        {
          "internalType": "bool",
          "name": "",
          "type": "bool"
        }
      ],
      "stateMutability": "view",
      "type": "function"
    },
    {
      "inputs": [],
      "name": "symbol",
      "outputs": [
        {
          "internalType": "string",
          "name": "",
          "type": "string"
        }
      ],
      "stateMutability": "view",
      "type": "function"
    },
    {
      "inputs": [
        {
          "internalType": "uint256",
          "name": "tokenId",
          "type": "uint256"
        }
      ],
      "name": "tokenURI",
      "outputs": [
        {
          "internalType": "string",
          "name": "",
          "type": "string"
        }
      ],
      "stateMutability": "view",
      "type": "function"
    },
    {
      "inputs": [
        {
          "internalType": "address",
          "name": "from",
          "type": "address"
        },
        {
          "internalType": "address",
          "name": "to",
          "type": "address"
        },
        {
          "internalType": "uint256",
          "name": "tokenId",
          "type": "uint256"
        }
      ],
      "name": "transferFrom",
      "outputs": [],
      "stateMutability": "nonpayable",
      "type": "function"
    },
    {
      "inputs": [
        {
          "internalType": "address",
          "name": "newOwner",
          "type": "address"
        }
      ],
      "name": "transferOwnership",
      "outputs": [],
      "stateMutability": "nonpayable",
      "type": "function"
    },
    {
      "inputs": [
        {
          "internalType": "address payable",
          "name": "payee",
          "type": "address"
        }
      ],
      "name": "withdrawPayments",
      "outputs": [],
      "stateMutability": "nonpayable",
      "type": "function"
    }
  ],
  "bytecode": "0x60a06040523480156200001157600080fd5b506040518060400160405280600b81526020017f4e46545475746f7269616c0000000000000000000000000000000000000000008152506040518060400160405280600381526020017f4e4654000000000000000000000000000000000000000000000000000000000081525081600090805190602001906200009692919062000230565b508060019080519060200190620000af92919062000230565b505050604051620000c090620002c1565b604051809103906000f080158015620000dd573d6000803e3d6000fd5b5073ffffffffffffffffffffffffffffffffffffffff1660808173ffffffffffffffffffffffffffffffffffffffff1660601b8152505062000134620001286200016260201b60201c565b6200016a60201b60201c565b60405180602001604052806000815250600890805190602001906200015b92919062000230565b5062000353565b600033905090565b6000600660009054906101000a900473ffffffffffffffffffffffffffffffffffffffff16905081600660006101000a81548173ffffffffffffffffffffffffffffffffffffffff021916908373ffffffffffffffffffffffffffffffffffffffff1602179055508173ffffffffffffffffffffffffffffffffffffffff168173ffffffffffffffffffffffffffffffffffffffff167f8be0079c531659141344cd1fd0a4f28419497f9722a3daafe3b4186f6b6457e060405160405180910390a35050565b8280546200023e90620002ee565b90600052602060002090601f016020900481019282620002625760008555620002ae565b82601f106200027d57805160ff1916838001178555620002ae565b82800160010185558215620002ae579182015b82811115620002ad57825182559160200191906001019062000290565b5b509050620002bd9190620002cf565b5090565b610bb780620034df83390190565b5b80821115620002ea576000816000905550600101620002d0565b5090565b600060028204905060018216806200030757607f821691505b602082108114156200031e576200031d62000324565b5b50919050565b7f4e487b7100000000000000000000000000000000000000000000000000000000600052602260045260246000fd5b60805160601c6131666200037960003960008181610dcb015261148301526131666000f3fe60806040526004361061014b5760003560e01c80638da5cb5b116100b6578063c87b56dd1161006f578063c87b56dd14610481578063cee19474146104be578063d547cfb7146104e9578063e2982c2114610514578063e985e9c514610551578063f2fde38b1461058e5761014b565b80638da5cb5b14610383578063902d55a5146103ae57806395d89b41146103d9578063a22cb46514610404578063b88d4fde1461042d578063c002d23d146104565761014b565b806331b3eb941161010857806331b3eb941461027057806342842e0e146102995780636352211e146102c257806370a08231146102ff578063715018a61461033c578063755edd17146103535761014b565b806301ffc9a71461015057806306fdde031461018d578063081812fc146101b8578063095ea7b3146101f557806323b872dd1461021e57806330176e1314610247575b600080fd5b34801561015c57600080fd5b506101776004803603810190610172919061225a565b6105b7565b60405161018491906126d1565b60405180910390f35b34801561019957600080fd5b506101a2610699565b6040516101af91906126ec565b60405180910390f35b3480156101c457600080fd5b506101df60048036038101906101da91906122ed565b61072b565b6040516101ec919061264f565b60405180910390f35b34801561020157600080fd5b5061021c6004803603810190610217919061221e565b610771565b005b34801561022a57600080fd5b5061024560048036038101906102409190612118565b610889565b005b34801561025357600080fd5b5061026e600480360381019061026991906122ac565b6108e9565b005b34801561027c57600080fd5b50610297600480360381019061029291906120b3565b610903565b005b3480156102a557600080fd5b506102c060048036038101906102bb9190612118565b610917565b005b3480156102ce57600080fd5b506102e960048036038101906102e491906122ed565b610937565b6040516102f6919061264f565b60405180910390f35b34801561030b57600080fd5b506103266004803603810190610321919061208a565b6109e9565b60405161033391906128ee565b60405180910390f35b34801561034857600080fd5b50610351610aa1565b005b61036d6004803603810190610368919061208a565b610ab5565b60405161037a91906128ee565b60405180910390f35b34801561038f57600080fd5b50610398610b7c565b6040516103a5919061264f565b60405180910390f35b3480156103ba57600080fd5b506103c3610ba6565b6040516103d091906128ee565b60405180910390f35b3480156103e557600080fd5b506103ee610bab565b6040516103fb91906126ec565b60405180910390f35b34801561041057600080fd5b5061042b600480360381019061042691906121e2565b610c3d565b005b34801561043957600080fd5b50610454600480360381019061044f9190612167565b610c53565b005b34801561046257600080fd5b5061046b610cb5565b60405161047891906128ee565b60405180910390f35b34801561048d57600080fd5b506104a860048036038101906104a391906122ed565b610cc0565b6040516104b591906126ec565b60405180910390f35b3480156104ca57600080fd5b506104d3610d28565b6040516104e091906128ee565b60405180910390f35b3480156104f557600080fd5b506104fe610d39565b60405161050b91906126ec565b60405180910390f35b34801561052057600080fd5b5061053b6004803603810190610536919061208a565b610dc7565b60405161054891906128ee565b60405180910390f35b34801561055d57600080fd5b50610578600480360381019061057391906120dc565b610e79565b60405161058591906126d1565b60405180910390f35b34801561059a57600080fd5b506105b560048036038101906105b0919061208a565b610f0d565b005b60007f80ac58cd000000000000000000000000000000000000000000000000000000007bffffffffffffffffffffffffffffffffffffffffffffffffffffffff1916827bffffffffffffffffffffffffffffffffffffffffffffffffffffffff1916148061068257507f5b5e139f000000000000000000000000000000000000000000000000000000007bffffffffffffffffffffffffffffffffffffffffffffffffffffffff1916827bffffffffffffffffffffffffffffffffffffffffffffffffffffffff1916145b80610692575061069182610f91565b5b9050919050565b6060600080546106a890612b56565b80601f01602080910402602001604051908101604052809291908181526020018280546106d490612b56565b80156107215780601f106106f657610100808354040283529160200191610721565b820191906000526020600020905b81548152906001019060200180831161070457829003601f168201915b5050505050905090565b600061073682610ffb565b6004600083815260200190815260200160002060009054906101000a900473ffffffffffffffffffffffffffffffffffffffff169050919050565b600061077c82610937565b90508073ffffffffffffffffffffffffffffffffffffffff168373ffffffffffffffffffffffffffffffffffffffff1614156107ed576040517f08c379a00000000000000000000000000000000000000000000000000000000081526004016107e49061288e565b60405180910390fd5b8073ffffffffffffffffffffffffffffffffffffffff1661080c611046565b73ffffffffffffffffffffffffffffffffffffffff16148061083b575061083a81610835611046565b610e79565b5b61087a576040517f08c379a00000000000000000000000000000000000000000000000000000000081526004016108719061280e565b60405180910390fd5b610884838361104e565b505050565b61089a610894611046565b82611107565b6108d9576040517f08c379a00000000000000000000000000000000000000000000000000000000081526004016108d0906128ce565b60405180910390fd5b6108e483838361119c565b505050565b80600890805190602001906108ff929190611e84565b5050565b61090b611403565b61091481611481565b50565b61093283838360405180602001604052806000815250610c53565b505050565b6000806002600084815260200190815260200160002060009054906101000a900473ffffffffffffffffffffffffffffffffffffffff169050600073ffffffffffffffffffffffffffffffffffffffff168173ffffffffffffffffffffffffffffffffffffffff1614156109e0576040517f08c379a00000000000000000000000000000000000000000000000000000000081526004016109d79061286e565b60405180910390fd5b80915050919050565b60008073ffffffffffffffffffffffffffffffffffffffff168273ffffffffffffffffffffffffffffffffffffffff161415610a5a576040517f08c379a0000000000000000000000000000000000000000000000000000000008152600401610a51906127ee565b60405180910390fd5b600360008373ffffffffffffffffffffffffffffffffffffffff1673ffffffffffffffffffffffffffffffffffffffff168152602001908152602001600020549050919050565b610aa9611403565b610ab3600061150f565b565b600080610ac260076115d5565b9050600a8110610b07576040517f08c379a0000000000000000000000000000000000000000000000000000000008152600401610afe906128ae565b60405180910390fd5b66038d7ea4c680003414610b50576040517f08c379a0000000000000000000000000000000000000000000000000000000008152600401610b47906127ce565b60405180910390fd5b610b5a60076115e3565b6000610b6660076115d5565b9050610b7284826115f9565b8092505050919050565b6000600660009054906101000a900473ffffffffffffffffffffffffffffffffffffffff16905090565b600a81565b606060018054610bba90612b56565b80601f0160208091040260200160405190810160405280929190818152602001828054610be690612b56565b8015610c335780601f10610c0857610100808354040283529160200191610c33565b820191906000526020600020905b815481529060010190602001808311610c1657829003601f168201915b5050505050905090565b610c4f610c48611046565b8383611617565b5050565b610c64610c5e611046565b83611107565b610ca3576040517f08c379a0000000000000000000000000000000000000000000000000000000008152600401610c9a906128ce565b60405180910390fd5b610caf84848484611784565b50505050565b66038d7ea4c6800081565b6060610ccb82610ffb565b6000610cd56117e0565b90506000815111610cf55760405180602001604052806000815250610d20565b80610cff84611872565b604051602001610d1092919061262b565b6040516020818303038152906040525b915050919050565b6000610d3460076115d5565b905090565b60088054610d4690612b56565b80601f0160208091040260200160405190810160405280929190818152602001828054610d7290612b56565b8015610dbf5780601f10610d9457610100808354040283529160200191610dbf565b820191906000526020600020905b815481529060010190602001808311610da257829003601f168201915b505050505081565b60007f000000000000000000000000000000000000000000000000000000000000000073ffffffffffffffffffffffffffffffffffffffff1663e3a9db1a836040518263ffffffff1660e01b8152600401610e22919061264f565b60206040518083038186803b158015610e3a57600080fd5b505afa158015610e4e573d6000803e3d6000fd5b505050506040513d601f19601f82011682018060405250810190610e729190612316565b9050919050565b6000600560008473ffffffffffffffffffffffffffffffffffffffff1673ffffffffffffffffffffffffffffffffffffffff16815260200190815260200160002060008373ffffffffffffffffffffffffffffffffffffffff1673ffffffffffffffffffffffffffffffffffffffff16815260200190815260200160002060009054906101000a900460ff16905092915050565b610f15611403565b600073ffffffffffffffffffffffffffffffffffffffff168173ffffffffffffffffffffffffffffffffffffffff161415610f85576040517f08c379a0000000000000000000000000000000000000000000000000000000008152600401610f7c9061272e565b60405180910390fd5b610f8e8161150f565b50565b60007f01ffc9a7000000000000000000000000000000000000000000000000000000007bffffffffffffffffffffffffffffffffffffffffffffffffffffffff1916827bffffffffffffffffffffffffffffffffffffffffffffffffffffffff1916149050919050565b61100481611a1f565b611043576040517f08c379a000000000000000000000000000000000000000000000000000000000815260040161103a9061286e565b60405180910390fd5b50565b600033905090565b816004600083815260200190815260200160002060006101000a81548173ffffffffffffffffffffffffffffffffffffffff021916908373ffffffffffffffffffffffffffffffffffffffff160217905550808273ffffffffffffffffffffffffffffffffffffffff166110c183610937565b73ffffffffffffffffffffffffffffffffffffffff167f8c5be1e5ebec7d5bd14f71427d1e84f3dd0314c0f7b2291e5b200ac8c7c3b92560405160405180910390a45050565b60008061111383610937565b90508073ffffffffffffffffffffffffffffffffffffffff168473ffffffffffffffffffffffffffffffffffffffff16148061115557506111548185610e79565b5b8061119357508373ffffffffffffffffffffffffffffffffffffffff1661117b8461072b565b73ffffffffffffffffffffffffffffffffffffffff16145b91505092915050565b8273ffffffffffffffffffffffffffffffffffffffff166111bc82610937565b73ffffffffffffffffffffffffffffffffffffffff1614611212576040517f08c379a00000000000000000000000000000000000000000000000000000000081526004016112099061274e565b60405180910390fd5b600073ffffffffffffffffffffffffffffffffffffffff168273ffffffffffffffffffffffffffffffffffffffff161415611282576040517f08c379a00000000000000000000000000000000000000000000000000000000081526004016112799061278e565b60405180910390fd5b61128d838383611a8b565b61129860008261104e565b6001600360008573ffffffffffffffffffffffffffffffffffffffff1673ffffffffffffffffffffffffffffffffffffffff16815260200190815260200160002060008282546112e89190612a5a565b925050819055506001600360008473ffffffffffffffffffffffffffffffffffffffff1673ffffffffffffffffffffffffffffffffffffffff168152602001908152602001600020600082825461133f91906129d3565b92505081905550816002600083815260200190815260200160002060006101000a81548173ffffffffffffffffffffffffffffffffffffffff021916908373ffffffffffffffffffffffffffffffffffffffff160217905550808273ffffffffffffffffffffffffffffffffffffffff168473ffffffffffffffffffffffffffffffffffffffff167fddf252ad1be2c89b69c2b068fc378daa952ba7f163c4a11628f55a4df523b3ef60405160405180910390a46113fe838383611a90565b505050565b61140b611046565b73ffffffffffffffffffffffffffffffffffffffff16611429610b7c565b73ffffffffffffffffffffffffffffffffffffffff161461147f576040517f08c379a00000000000000000000000000000000000000000000000000000000081526004016114769061284e565b60405180910390fd5b565b7f000000000000000000000000000000000000000000000000000000000000000073ffffffffffffffffffffffffffffffffffffffff166351cff8d9826040518263ffffffff1660e01b81526004016114da919061266a565b600060405180830381600087803b1580156114f457600080fd5b505af1158015611508573d6000803e3d6000fd5b5050505050565b6000600660009054906101000a900473ffffffffffffffffffffffffffffffffffffffff16905081600660006101000a81548173ffffffffffffffffffffffffffffffffffffffff021916908373ffffffffffffffffffffffffffffffffffffffff1602179055508173ffffffffffffffffffffffffffffffffffffffff168173ffffffffffffffffffffffffffffffffffffffff167f8be0079c531659141344cd1fd0a4f28419497f9722a3daafe3b4186f6b6457e060405160405180910390a35050565b600081600001549050919050565b6001816000016000828254019250508190555050565b611613828260405180602001604052806000815250611a95565b5050565b8173ffffffffffffffffffffffffffffffffffffffff168373ffffffffffffffffffffffffffffffffffffffff161415611686576040517f08c379a000000000000000000000000000000000000000000000000000000000815260040161167d906127ae565b60405180910390fd5b80600560008573ffffffffffffffffffffffffffffffffffffffff1673ffffffffffffffffffffffffffffffffffffffff16815260200190815260200160002060008473ffffffffffffffffffffffffffffffffffffffff1673ffffffffffffffffffffffffffffffffffffffff16815260200190815260200160002060006101000a81548160ff0219169083151502179055508173ffffffffffffffffffffffffffffffffffffffff168373ffffffffffffffffffffffffffffffffffffffff167f17307eab39ab6107e8899845ad3d59bd9653f200f220920489ca2b5937696c318360405161177791906126d1565b60405180910390a3505050565b61178f84848461119c565b61179b84848484611af0565b6117da576040517f08c379a00000000000000000000000000000000000000000000000000000000081526004016117d19061270e565b60405180910390fd5b50505050565b6060600880546117ef90612b56565b80601f016020809104026020016040519081016040528092919081815260200182805461181b90612b56565b80156118685780601f1061183d57610100808354040283529160200191611868565b820191906000526020600020905b81548152906001019060200180831161184b57829003601f168201915b5050505050905090565b606060008214156118ba576040518060400160405280600181526020017f30000000000000000000000000000000000000000000000000000000000000008152509050611a1a565b600082905060005b600082146118ec5780806118d590612bb9565b915050600a826118e59190612a29565b91506118c2565b60008167ffffffffffffffff81111561192e577f4e487b7100000000000000000000000000000000000000000000000000000000600052604160045260246000fd5b6040519080825280601f01601f1916602001820160405280156119605781602001600182028036833780820191505090505b5090505b60008514611a13576001826119799190612a5a565b9150600a856119889190612c02565b603061199491906129d3565b60f81b8183815181106119d0577f4e487b7100000000000000000000000000000000000000000000000000000000600052603260045260246000fd5b60200101907effffffffffffffffffffffffffffffffffffffffffffffffffffffffffffff1916908160001a905350600a85611a0c9190612a29565b9450611964565b8093505050505b919050565b60008073ffffffffffffffffffffffffffffffffffffffff166002600084815260200190815260200160002060009054906101000a900473ffffffffffffffffffffffffffffffffffffffff1673ffffffffffffffffffffffffffffffffffffffff1614159050919050565b505050565b505050565b611a9f8383611c87565b611aac6000848484611af0565b611aeb576040517f08c379a0000000000000000000000000000000000000000000000000000000008152600401611ae29061270e565b60405180910390fd5b505050565b6000611b118473ffffffffffffffffffffffffffffffffffffffff16611e61565b15611c7a578373ffffffffffffffffffffffffffffffffffffffff1663150b7a02611b3a611046565b8786866040518563ffffffff1660e01b8152600401611b5c9493929190612685565b602060405180830381600087803b158015611b7657600080fd5b505af1925050508015611ba757506040513d601f19601f82011682018060405250810190611ba49190612283565b60015b611c2a573d8060008114611bd7576040519150601f19603f3d011682016040523d82523d6000602084013e611bdc565b606091505b50600081511415611c22576040517f08c379a0000000000000000000000000000000000000000000000000000000008152600401611c199061270e565b60405180910390fd5b805181602001fd5b63150b7a0260e01b7bffffffffffffffffffffffffffffffffffffffffffffffffffffffff1916817bffffffffffffffffffffffffffffffffffffffffffffffffffffffff191614915050611c7f565b600190505b949350505050565b600073ffffffffffffffffffffffffffffffffffffffff168273ffffffffffffffffffffffffffffffffffffffff161415611cf7576040517f08c379a0000000000000000000000000000000000000000000000000000000008152600401611cee9061282e565b60405180910390fd5b611d0081611a1f565b15611d40576040517f08c379a0000000000000000000000000000000000000000000000000000000008152600401611d379061276e565b60405180910390fd5b611d4c60008383611a8b565b6001600360008473ffffffffffffffffffffffffffffffffffffffff1673ffffffffffffffffffffffffffffffffffffffff1681526020019081526020016000206000828254611d9c91906129d3565b92505081905550816002600083815260200190815260200160002060006101000a81548173ffffffffffffffffffffffffffffffffffffffff021916908373ffffffffffffffffffffffffffffffffffffffff160217905550808273ffffffffffffffffffffffffffffffffffffffff16600073ffffffffffffffffffffffffffffffffffffffff167fddf252ad1be2c89b69c2b068fc378daa952ba7f163c4a11628f55a4df523b3ef60405160405180910390a4611e5d60008383611a90565b5050565b6000808273ffffffffffffffffffffffffffffffffffffffff163b119050919050565b828054611e9090612b56565b90600052602060002090601f016020900481019282611eb25760008555611ef9565b82601f10611ecb57805160ff1916838001178555611ef9565b82800160010185558215611ef9579182015b82811115611ef8578251825591602001919060010190611edd565b5b509050611f069190611f0a565b5090565b5b80821115611f23576000816000905550600101611f0b565b5090565b6000611f3a611f358461292e565b612909565b905082815260208101848484011115611f5257600080fd5b611f5d848285612b14565b509392505050565b6000611f78611f738461295f565b612909565b905082815260208101848484011115611f9057600080fd5b611f9b848285612b14565b509392505050565b600081359050611fb2816130bd565b92915050565b600081359050611fc7816130d4565b92915050565b600081359050611fdc816130eb565b92915050565b600081359050611ff181613102565b92915050565b60008151905061200681613102565b92915050565b600082601f83011261201d57600080fd5b813561202d848260208601611f27565b91505092915050565b600082601f83011261204757600080fd5b8135612057848260208601611f65565b91505092915050565b60008135905061206f81613119565b92915050565b60008151905061208481613119565b92915050565b60006020828403121561209c57600080fd5b60006120aa84828501611fa3565b91505092915050565b6000602082840312156120c557600080fd5b60006120d384828501611fb8565b91505092915050565b600080604083850312156120ef57600080fd5b60006120fd85828601611fa3565b925050602061210e85828601611fa3565b9150509250929050565b60008060006060848603121561212d57600080fd5b600061213b86828701611fa3565b935050602061214c86828701611fa3565b925050604061215d86828701612060565b9150509250925092565b6000806000806080858703121561217d57600080fd5b600061218b87828801611fa3565b945050602061219c87828801611fa3565b93505060406121ad87828801612060565b925050606085013567ffffffffffffffff8111156121ca57600080fd5b6121d68782880161200c565b91505092959194509250565b600080604083850312156121f557600080fd5b600061220385828601611fa3565b925050602061221485828601611fcd565b9150509250929050565b6000806040838503121561223157600080fd5b600061223f85828601611fa3565b925050602061225085828601612060565b9150509250929050565b60006020828403121561226c57600080fd5b600061227a84828501611fe2565b91505092915050565b60006020828403121561229557600080fd5b60006122a384828501611ff7565b91505092915050565b6000602082840312156122be57600080fd5b600082013567ffffffffffffffff8111156122d857600080fd5b6122e484828501612036565b91505092915050565b6000602082840312156122ff57600080fd5b600061230d84828501612060565b91505092915050565b60006020828403121561232857600080fd5b600061233684828501612075565b91505092915050565b61234881612aa0565b82525050565b61235781612a8e565b82525050565b61236681612ab2565b82525050565b600061237782612990565b61238181856129a6565b9350612391818560208601612b23565b61239a81612cef565b840191505092915050565b60006123b08261299b565b6123ba81856129b7565b93506123ca818560208601612b23565b6123d381612cef565b840191505092915050565b60006123e98261299b565b6123f381856129c8565b9350612403818560208601612b23565b80840191505092915050565b600061241c6032836129b7565b915061242782612d00565b604082019050919050565b600061243f6026836129b7565b915061244a82612d4f565b604082019050919050565b60006124626025836129b7565b915061246d82612d9e565b604082019050919050565b6000612485601c836129b7565b915061249082612ded565b602082019050919050565b60006124a86024836129b7565b91506124b382612e16565b604082019050919050565b60006124cb6019836129b7565b91506124d682612e65565b602082019050919050565b60006124ee602e836129b7565b91506124f982612e8e565b604082019050919050565b60006125116029836129b7565b915061251c82612edd565b604082019050919050565b6000612534603e836129b7565b915061253f82612f2c565b604082019050919050565b60006125576020836129b7565b915061256282612f7b565b602082019050919050565b600061257a6020836129b7565b915061258582612fa4565b602082019050919050565b600061259d6018836129b7565b91506125a882612fcd565b602082019050919050565b60006125c06021836129b7565b91506125cb82612ff6565b604082019050919050565b60006125e36012836129b7565b91506125ee82613045565b602082019050919050565b6000612606602e836129b7565b91506126118261306e565b604082019050919050565b61262581612b0a565b82525050565b600061263782856123de565b915061264382846123de565b91508190509392505050565b6000602082019050612664600083018461234e565b92915050565b600060208201905061267f600083018461233f565b92915050565b600060808201905061269a600083018761234e565b6126a7602083018661234e565b6126b4604083018561261c565b81810360608301526126c6818461236c565b905095945050505050565b60006020820190506126e6600083018461235d565b92915050565b6000602082019050818103600083015261270681846123a5565b905092915050565b600060208201905081810360008301526127278161240f565b9050919050565b6000602082019050818103600083015261274781612432565b9050919050565b6000602082019050818103600083015261276781612455565b9050919050565b6000602082019050818103600083015261278781612478565b9050919050565b600060208201905081810360008301526127a78161249b565b9050919050565b600060208201905081810360008301526127c7816124be565b9050919050565b600060208201905081810360008301526127e7816124e1565b9050919050565b6000602082019050818103600083015261280781612504565b9050919050565b6000602082019050818103600083015261282781612527565b9050919050565b600060208201905081810360008301526128478161254a565b9050919050565b600060208201905081810360008301526128678161256d565b9050919050565b6000602082019050818103600083015261288781612590565b9050919050565b600060208201905081810360008301526128a7816125b3565b9050919050565b600060208201905081810360008301526128c7816125d6565b9050919050565b600060208201905081810360008301526128e7816125f9565b9050919050565b6000602082019050612903600083018461261c565b92915050565b6000612913612924565b905061291f8282612b88565b919050565b6000604051905090565b600067ffffffffffffffff82111561294957612948612cc0565b5b61295282612cef565b9050602081019050919050565b600067ffffffffffffffff82111561297a57612979612cc0565b5b61298382612cef565b9050602081019050919050565b600081519050919050565b600081519050919050565b600082825260208201905092915050565b600082825260208201905092915050565b600081905092915050565b60006129de82612b0a565b91506129e983612b0a565b9250827fffffffffffffffffffffffffffffffffffffffffffffffffffffffffffffffff03821115612a1e57612a1d612c33565b5b828201905092915050565b6000612a3482612b0a565b9150612a3f83612b0a565b925082612a4f57612a4e612c62565b5b828204905092915050565b6000612a6582612b0a565b9150612a7083612b0a565b925082821015612a8357612a82612c33565b5b828203905092915050565b6000612a9982612aea565b9050919050565b6000612aab82612aea565b9050919050565b60008115159050919050565b60007fffffffff0000000000000000000000000000000000000000000000000000000082169050919050565b600073ffffffffffffffffffffffffffffffffffffffff82169050919050565b6000819050919050565b82818337600083830152505050565b60005b83811015612b41578082015181840152602081019050612b26565b83811115612b50576000848401525b50505050565b60006002820490506001821680612b6e57607f821691505b60208210811415612b8257612b81612c91565b5b50919050565b612b9182612cef565b810181811067ffffffffffffffff82111715612bb057612baf612cc0565b5b80604052505050565b6000612bc482612b0a565b91507fffffffffffffffffffffffffffffffffffffffffffffffffffffffffffffffff821415612bf757612bf6612c33565b5b600182019050919050565b6000612c0d82612b0a565b9150612c1883612b0a565b925082612c2857612c27612c62565b5b828206905092915050565b7f4e487b7100000000000000000000000000000000000000000000000000000000600052601160045260246000fd5b7f4e487b7100000000000000000000000000000000000000000000000000000000600052601260045260246000fd5b7f4e487b7100000000000000000000000000000000000000000000000000000000600052602260045260246000fd5b7f4e487b7100000000000000000000000000000000000000000000000000000000600052604160045260246000fd5b6000601f19601f8301169050919050565b7f4552433732313a207472616e7366657220746f206e6f6e20455243373231526560008201527f63656976657220696d706c656d656e7465720000000000000000000000000000602082015250565b7f4f776e61626c653a206e6577206f776e657220697320746865207a65726f206160008201527f6464726573730000000000000000000000000000000000000000000000000000602082015250565b7f4552433732313a207472616e736665722066726f6d20696e636f72726563742060008201527f6f776e6572000000000000000000000000000000000000000000000000000000602082015250565b7f4552433732313a20746f6b656e20616c7265616479206d696e74656400000000600082015250565b7f4552433732313a207472616e7366657220746f20746865207a65726f2061646460008201527f7265737300000000000000000000000000000000000000000000000000000000602082015250565b7f4552433732313a20617070726f766520746f2063616c6c657200000000000000600082015250565b7f5472616e73616374696f6e2076616c756520646964206e6f7420657175616c2060008201527f746865206d696e74207072696365000000000000000000000000000000000000602082015250565b7f4552433732313a2061646472657373207a65726f206973206e6f74206120766160008201527f6c6964206f776e65720000000000000000000000000000000000000000000000602082015250565b7f4552433732313a20617070726f76652063616c6c6572206973206e6f7420746f60008201527f6b656e206f776e6572206e6f7220617070726f76656420666f7220616c6c0000602082015250565b7f4552433732313a206d696e7420746f20746865207a65726f2061646472657373600082015250565b7f4f776e61626c653a2063616c6c6572206973206e6f7420746865206f776e6572600082015250565b7f4552433732313a20696e76616c696420746f6b656e2049440000000000000000600082015250565b7f4552433732313a20617070726f76616c20746f2063757272656e74206f776e6560008201527f7200000000000000000000000000000000000000000000000000000000000000602082015250565b7f4d617820737570706c7920726561636865640000000000000000000000000000600082015250565b7f4552433732313a2063616c6c6572206973206e6f7420746f6b656e206f776e6560008201527f72206e6f7220617070726f766564000000000000000000000000000000000000602082015250565b6130c681612a8e565b81146130d157600080fd5b50565b6130dd81612aa0565b81146130e857600080fd5b50565b6130f481612ab2565b81146130ff57600080fd5b50565b61310b81612abe565b811461311657600080fd5b50565b61312281612b0a565b811461312d57600080fd5b5056fea2646970667358221220ad2020b966783f46674550afacd1e58c4b66e50c749d9798dcdc02e73b4b75d264736f6c63430008010033608060405234801561001057600080fd5b5061002d61002261003260201b60201c565b61003a60201b60201c565b6100fe565b600033905090565b60008060009054906101000a900473ffffffffffffffffffffffffffffffffffffffff169050816000806101000a81548173ffffffffffffffffffffffffffffffffffffffff021916908373ffffffffffffffffffffffffffffffffffffffff1602179055508173ffffffffffffffffffffffffffffffffffffffff168173ffffffffffffffffffffffffffffffffffffffff167f8be0079c531659141344cd1fd0a4f28419497f9722a3daafe3b4186f6b6457e060405160405180910390a35050565b610aaa8061010d6000396000f3fe6080604052600436106100555760003560e01c806351cff8d91461005a578063715018a6146100835780638da5cb5b1461009a578063e3a9db1a146100c5578063f2fde38b14610102578063f340fa011461012b575b600080fd5b34801561006657600080fd5b50610081600480360381019061007c91906106a3565b610147565b005b34801561008f57600080fd5b50610098610253565b005b3480156100a657600080fd5b506100af610267565b6040516100bc91906107ae565b60405180910390f35b3480156100d157600080fd5b506100ec60048036038101906100e7919061067a565b610290565b6040516100f99190610849565b60405180910390f35b34801561010e57600080fd5b506101296004803603810190610124919061067a565b6102d9565b005b6101456004803603810190610140919061067a565b61035d565b005b61014f610412565b6000600160008373ffffffffffffffffffffffffffffffffffffffff1673ffffffffffffffffffffffffffffffffffffffff1681526020019081526020016000205490506000600160008473ffffffffffffffffffffffffffffffffffffffff1673ffffffffffffffffffffffffffffffffffffffff16815260200190815260200160002081905550610201818373ffffffffffffffffffffffffffffffffffffffff1661049090919063ffffffff16565b8173ffffffffffffffffffffffffffffffffffffffff167f7084f5476618d8e60b11ef0d7d3f06914655adb8793e28ff7f018d4c76d505d5826040516102479190610849565b60405180910390a25050565b61025b610412565b6102656000610584565b565b60008060009054906101000a900473ffffffffffffffffffffffffffffffffffffffff16905090565b6000600160008373ffffffffffffffffffffffffffffffffffffffff1673ffffffffffffffffffffffffffffffffffffffff168152602001908152602001600020549050919050565b6102e1610412565b600073ffffffffffffffffffffffffffffffffffffffff168173ffffffffffffffffffffffffffffffffffffffff161415610351576040517f08c379a0000000000000000000000000000000000000000000000000000000008152600401610348906107c9565b60405180910390fd5b61035a81610584565b50565b610365610412565b600034905080600160008473ffffffffffffffffffffffffffffffffffffffff1673ffffffffffffffffffffffffffffffffffffffff16815260200190815260200160002060008282546103b99190610880565b925050819055508173ffffffffffffffffffffffffffffffffffffffff167f2da466a7b24304f47e87fa2e1e5a81b9831ce54fec19055ce277ca2f39ba42c4826040516104069190610849565b60405180910390a25050565b61041a610648565b73ffffffffffffffffffffffffffffffffffffffff16610438610267565b73ffffffffffffffffffffffffffffffffffffffff161461048e576040517f08c379a000000000000000000000000000000000000000000000000000000000815260040161048590610829565b60405180910390fd5b565b804710156104d3576040517f08c379a00000000000000000000000000000000000000000000000000000000081526004016104ca90610809565b60405180910390fd5b60008273ffffffffffffffffffffffffffffffffffffffff16826040516104f990610799565b60006040518083038185875af1925050503d8060008114610536576040519150601f19603f3d011682016040523d82523d6000602084013e61053b565b606091505b505090508061057f576040517f08c379a0000000000000000000000000000000000000000000000000000000008152600401610576906107e9565b60405180910390fd5b505050565b60008060009054906101000a900473ffffffffffffffffffffffffffffffffffffffff169050816000806101000a81548173ffffffffffffffffffffffffffffffffffffffff021916908373ffffffffffffffffffffffffffffffffffffffff1602179055508173ffffffffffffffffffffffffffffffffffffffff168173ffffffffffffffffffffffffffffffffffffffff167f8be0079c531659141344cd1fd0a4f28419497f9722a3daafe3b4186f6b6457e060405160405180910390a35050565b600033905090565b60008135905061065f81610a46565b92915050565b60008135905061067481610a5d565b92915050565b60006020828403121561068c57600080fd5b600061069a84828501610650565b91505092915050565b6000602082840312156106b557600080fd5b60006106c384828501610665565b91505092915050565b6106d5816108d6565b82525050565b60006106e860268361086f565b91506106f382610953565b604082019050919050565b600061070b603a8361086f565b9150610716826109a2565b604082019050919050565b600061072e601d8361086f565b9150610739826109f1565b602082019050919050565b600061075160208361086f565b915061075c82610a1a565b602082019050919050565b6000610774600083610864565b915061077f82610a43565b600082019050919050565b6107938161091a565b82525050565b60006107a482610767565b9150819050919050565b60006020820190506107c360008301846106cc565b92915050565b600060208201905081810360008301526107e2816106db565b9050919050565b60006020820190508181036000830152610802816106fe565b9050919050565b6000602082019050818103600083015261082281610721565b9050919050565b6000602082019050818103600083015261084281610744565b9050919050565b600060208201905061085e600083018461078a565b92915050565b600081905092915050565b600082825260208201905092915050565b600061088b8261091a565b91506108968361091a565b9250827fffffffffffffffffffffffffffffffffffffffffffffffffffffffffffffffff038211156108cb576108ca610924565b5b828201905092915050565b60006108e1826108fa565b9050919050565b60006108f3826108fa565b9050919050565b600073ffffffffffffffffffffffffffffffffffffffff82169050919050565b6000819050919050565b7f4e487b7100000000000000000000000000000000000000000000000000000000600052601160045260246000fd5b7f4f776e61626c653a206e6577206f776e657220697320746865207a65726f206160008201527f6464726573730000000000000000000000000000000000000000000000000000602082015250565b7f416464726573733a20756e61626c6520746f2073656e642076616c75652c207260008201527f6563697069656e74206d61792068617665207265766572746564000000000000602082015250565b7f416464726573733a20696e73756666696369656e742062616c616e6365000000600082015250565b7f4f776e61626c653a2063616c6c6572206973206e6f7420746865206f776e6572600082015250565b50565b610a4f816108d6565b8114610a5a57600080fd5b50565b610a66816108e8565b8114610a7157600080fd5b5056fea26469706673582212208572fc3f6c137b8243928f2f2df2b1b4a84c2f286c9f749c054889c9c924d69b64736f6c63430008010033",
  "linkReferences": {},
  "deployedLinkReferences": {}
}